:020000040000FA
:0400000080312728FC
:100008007E1480310B1F09280A2825282100111D7C
:100018000E280F281A282000111D132814281A2822
:1000280075088A0074080A00803125282100911D6E
:100038001E281F2825282000911D2328242825282C
:1000480014287E10090080312928F001F101F201FD
:10005800F301F401F501F601F701F801F9012000B7
:10006800A001A101A201A301A401A5017E10200005
:10007800813163298131E821803181318D218031BD
:10008800003A0319482849285B288131D521803155
:10009800003A03195028512856280130FB007B08E4
:1000A800F60095280230FB007B08F6009528813180
:1000B800D5218031003A0319622863286828033063
:1000C800FB007B08F60095280430FB007B08F6004F
:1000D800952881313E218031813186218031003A55
:1000E800031977287828A32881314B218031A32848
:1000F80081313E218031A328813186218031003A27
:10010800031987288828A32878288131DE2180319F
:10011800003A031990289128A3288131572180316A
:10012800A3287608013A03196D28033A03197C2895
:10013800013A03198028073A03198928A32881312D
:10014800E521803108008131102180317B308131F7
:10015800AD2180317F308131A72180313E302000B0
:10016800A6000030A7008131B9218031003020007D
:10017800A6000030A7008131BF218031CB3020009C
:10018800A6000130A70081319B2180317F302000FB
:10019800A6000130A7008131B321803194302000BE
:1001A800A6000130A7008131C52180310030200030
:1001B800A6000030A7008131A12180318131E221E0
:1001C8008031080022008C018E01373021008C001C
:1001D8003F308E003C3023008E0037308C002400E6
:1001E8008C018E0125008C018E01373026008C0091
:1001F8003F308E003F3027008C003F308E00183093
:100208003D00A00010303C00A00019303D00A100C6
:1002180011303C00A10008002400951A1429152962
:1002280020294030940006302000A600260824002B
:1002380095040130960095160800813177218131A7
:100248008131312181318031E620813181316E2146
:1002580081318131DA218131080040302400940055
:1002680006302000A60026082400950401309600D8
:10027800951208002000240825040319442945295B
:100288004A2925088A0024080A00813108007008D4
:100298007104031950295129562971088A007008D8
:1002A8000A00813108007208730403195C295D296A
:1002B800622973088A0072080A00813108008131B6
:1002C800212181318B170B178031A72081316B29B0
:1002D800803127286230320099009B019D0103304C
:1002E8009F009E0108003200910192019301940140
:1002F8009501960108008131EB218131FA007A08D5
:10030800F800080003102400141C03140030093DF1
:10031800080003102400941E03140030093D08004F
:100328008131EB218131FA007A08F70008002000BA
:100338002708F1002608F000080020002708A1007F
:100348002608A00008002000A600263524009300F7
:1003580008002000A600263524009200080020008E
:100368002708F3002608F200080020002708F500F7
:100378002608F400080020002708A3002608A20089
:10038800080020002708A5002608A400080079080E
:100398008131D02181310800FA007A0824009100C7
:1003A80008002400140C890C0139080016302100BB
:1003B800970008002400140801390800210091154D
:1003C80008002400151608002000911108002400D8
:0403D8001108080000
:020000040001F9
:08000E00EC3FF33FFF1FFF3F31
:00000001FF
