:020000040000FA
:0400000080312728FC
:100008007E1480310B1F09280A2825282100111D7C
:100018000E280F281A282000111D132814281A2822
:100028002B088A002A080A00803125282100911D02
:100038001E281F2825282000911D2328242825282C
:1000480014287E100900803129285130840080301E
:10005800850070308600233087000030FF00803034
:100068008231A5228031833140238031FB00F601A3
:10007800F701F801F901FA01A001A101A201A30108
:10008800A401A501A601A701A801A901AA01AB0124
:10009800AC017E1020008131FE2900340134023485
:1000A80003340434053406340734083409340A3474
:1000B8000B340C340D340E340F3410341134123424
:1000C80013341434153416341734183419341A34D4
:1000D8001B341C341D341E341F3420342134223484
:1000E80023342434253426342734283429342A3434
:1000F8002B342C342D342E342F34303431343234E4
:1001080033343434353436343734383439343A3493
:100118003B343C343D343E343F3440344134423443
:1001280043344434453446344734483449344A34F3
:100138004B344C344D344E344F34503451345234A3
:1001480053345434553456345734583459345A3453
:100158005B345C345D345E345F3460346134623403
:1001680063346434653466346734683469346A34B3
:100178006B346C346D346E346F3470347134723463
:1001880073347434753476347734783479347A3413
:100198007B347C347D347E347F3483313A23803120
:1001A8008231D8228031003A0319DB28DC28EE2876
:1001B80083311F238031003A0319E328E428E92812
:1001C8000130F5007508F80028290230F500750897
:1001D800F800282983311F238031003A0319F528B4
:1001E800F628FB280330F5007508F80028290430A4
:1001F800F5007508F800282982319822803182316B
:10020800D1228031003A03190A290B293629823173
:100218007E228031362982319822803136298231F6
:10022800D1228031003A03191A291B2936290B29B2
:10023800833128238031003A0319232924293629B8
:1002480082318B22803136297808013A0319002936
:10025800033A03190F29013A03191329073A031915
:100268001C293629833137238031080082315022F6
:10027800813167308231F12281317F308231EB2246
:100288008131D1302000AD000030AE008231FD2236
:10029800813100302000AD000030AE0083310323EF
:1002A800813115302000AD000330AE008231DF22ED
:1002B8008131CA302000AD000230AE008231F72211
:1002C8008131C2302000AD000230AE0083310923F5
:1002D800813100302000AD000030AE008231E522CF
:1002E80081318331342381310800760803197D294F
:1002F8007E298D2983312C238131F2007208F70081
:100308007B087702031C89298A298B29F701F601C2
:10031800AB2983312C238131F2007208F40077086D
:10032800F2007208F00077088131D5218131770811
:10033800703EF200F3012330F33D72088600730823
:100348008700740881000130F2007208F70708007E
:1003580022008C018E01333021008C003F308E004A
:10036800333023008E0037308C0024008C018E013E
:1003780025008C018E01373026008C003F308E001E
:100388003F3027008C003F308E0012303C00A00028
:1003980019303D00A3001830A20013303C00A10022
:1003A8000800F10031009518DA29DB29D62915173C
:1003B8007108910070309200940170089300200039
:1003C80003108B1FE829E929EA2903148B1331004C
:1003D800151555309600AA30960095149518F529EC
:1003E800F629F22915112000031CFB29FC29FD29F7
:1003F8008B1708008231612281318B170B178131ED
:100408003A2181313B302000AD000230AE0083310B
:100418000923813121302000AD000230AE00823145
:10042800DF22813179302000AD000130AE00823109
:10043800F72281311E2A803127287B087702031C86
:10044800262A272A282AF7017708703E860087017E
:100458002330873D0108F2007208F3000130F200F2
:100468007208F707730883310F238231080083313C
:100478002C2382318936F00070082000AC008331CB
:1004880030238231003A031D4A2A4B2A4F2A013071
:10049800F0007008F60008002400951A542A552A1E
:1004A800602AC030940006302000AD002D082400DA
:1004B800950401309600951608008231BA228231DF
:1004C8008231712282318131AC2182318231B12273
:1004D80082318331242382310800C0302400940003
:1004E80006302000AD002D08240095040130960048
:1004F800951208002000260827040319842A852A53
:100508008A2A27088A0026080A0082310800200063
:10051800280829040319912A922A972A29088A0067
:1005280028080A008231080020002408250403193D
:100538009E2A9F2AA42A25088A0024080A008231B4
:100548000800FE0012001E000130FE020030FF3BD2
:100558007F087E04031DA62A003462303200990009
:100568009B019D0103309F009E010800320091010C
:1005780092019301940195019601080083313D236E
:100588008231F00070082000AC00080083313D2360
:100598008231F0007008F900080003102400141CD0
:1005A80003140030093D080003102400941E0314AE
:1005B8000030093D080020002E08A7002D08A600DD
:1005C800080020002E08A1002D08A0000800200027
:1005D800AD002D352400930008002000AD002D3516
:1005E80024009200080020002E08A9002D08A80069
:1005F800080020002E08AB002D08AA0008002000E3
:100608002E08A3002D08A200080020002E08A5002F
:100618002D08A4000800F100710883311A238331E2
:1006280008007A0883311A2383310800F000700823
:100638002400910008002400140C890C01390800DA
:10064800163021009700080024001408013908001A
:1006580083313D238331080083311F238331080010
:10066800210091150800240015160800200091119A
:0A0678000800240011080800803477
:020000040001F9
:08000E00EC3FF33FFF1FFF3F31
:00000001FF
