:020000040000FA
:0400000080312728FC
:100008007E1480310B1F09280A2825282100111D7C
:100018000E280F281A282000111D132814281A2822
:1000280073088A0072080A00803125282100911D72
:100038001E281F2825282000911D2328242825282C
:1000480014287E10090080312928F001F101F201FD
:10005800F301F401F501F601F7012000A001A10167
:10006800A201A301A401A501A601A7017E102000F9
:10007800813130298131EF2180318131A0218031D6
:10008800003A0319482849285B288131DC2180314E
:10009800003A03195028512856280130FA007A08E6
:1000A800F40095280230FA007A08F4009528813186
:1000B800DC218031003A031962286328682803305C
:1000C800FA007A08F40095280430FA007A08F40057
:1000D8009528813157218031813199218031003A29
:1000E800031977287828A32881314A218031A32849
:1000F800813157218031A328813199218031003AFB
:10010800031987288828A32878288131E521803198
:10011800003A031990289128A3288131642180315D
:10012800A3287408013A03196D28033A03197C2897
:10013800013A03198028073A03198928A32881312D
:10014800EC218031080081310F2180314530813127
:10015800B92180317F308131B32180313E30200098
:10016800A8000030A9008131C5218031003020006D
:10017800A8000030A9008131CB21803179302000DE
:10018800A8000130A9008131A721803192302000D8
:10019800A8000130A9008131BF2180318A302000B8
:1001A800A8000130A9008131D12180310030200020
:1001B800A8000030A9008131AD2180318131E921C9
:1001C8008031080022008C018E01333021008C0020
:1001D8003F308E00333023008E0037308C002400EF
:1001E8008C018E0125008C018E01373026008C0091
:1001F8003F308E003F3027008C003F308E00123099
:100208003C00A00019303D00A3001830A2001330B4
:100218003C00A10008002400951A132914291F295D
:10022800C030940006302000A80028082400950457
:100238000130960095160800813182218131813183
:100248003D2181318031E620813181317021813138
:100258008131E121813108008131202181318B17E1
:100268000B178031A720813122000C1538298031E5
:100278002728C0302400940006302000A800280851
:1002880024009504013096009512080020002608E5
:100298002704031950295129562927088A002608B6
:1002A8000A008131080020002408250403195D296B
:1002B8005E29632925088A0024080A00813108007C
:1002C80070087104031969296A296F2971088A005D
:1002D80070080A00813108006230320099009B01E1
:1002E8009D0103309F009E0108007608F9007908F7
:1002F800F70077088131D721813108003200910158
:100308009201930194019501960108008131F2212F
:1003180081318936F8007808F50008008131F2212A
:100328008131F8007808F600080003102400141C36
:1003380003140030093D080003102400941E031420
:100348000030093D080020002908A7002808A60059
:10035800080020002908A1002808A00008002000A3
:10036800A80028352400930008002000A80028359C
:1003780024009200080020002908F1002808F00055
:10038800080020002908F3002808F20008002000CF
:100398002908A3002808A200080020002908A500B1
:1003A8002808A4000800F800780824009100080034
:1003B8002400140C890C013908001630210097001C
:1003C80008002400140801390800210091150800CC
:1003D80024001516080020009111080024001108B7
:0203E80008000B
:020000040001F9
:08000E00EC3FF33FFF1FFF3F31
:00000001FF
