:020000040000FA
:0400000080312728FC
:100008007E1480310B1F09280A2825282100111D7C
:100018000E280F281A282000111D132814281A2822
:100028002B088A002A080A00803125282100911D02
:100038001E281F2825282000911D2328242825282C
:1000480014287E100900803129285130840080301E
:10005800850070308600233087000030FF00803034
:1000680082317522803183310F238031FB00F0010A
:10007800F101F201F301F401F501A001A101A201CE
:10008800A301A401A501A601A701A801A901AA012C
:10009800AB017E1020008131CD29003401340234B7
:1000A80003340434053406340734083409340A3474
:1000B8000B340C340D340E340F3410341134123424
:1000C80013341434153416341734183419341A34D4
:1000D8001B341C341D341E341F3420342134223484
:1000E80023342434253426342734283429342A3434
:1000F8002B342C342D342E342F34303431343234E4
:1001080033343434353436343734383439343A3493
:100118003B343C343D343E343F3440344134423443
:1001280043344434453446344734483449344A34F3
:100138004B344C344D344E344F34503451345234A3
:1001480053345434553456345734583459345A3453
:100158005B345C345D345E345F3460346134623403
:1001680063346434653466346734683469346A34B3
:100178006B346C346D346E346F3470347134723463
:1001880073347434753476347734783479347A3413
:100198007B347C347D347E347F3483310923803151
:1001A8008231A0228031003A0319DB28DC28EE28AE
:1001B8008231EE228031003A0319E328E428E92845
:1001C8000130FA007A08F20028290230FA007A0889
:1001D800F20028298231EE228031003A0319F528ED
:1001E800F628FB280330FA007A08F20028290430A0
:1001F800FA007A08F2002829823168228031823197
:1002080099228031003A03190A290B2936298231AB
:100218004E22803136298231682280313629823156
:1002280099228031003A03191A291B2936290B29EA
:100238008231F7228031003A0319232924293629EB
:1002480082315B22803136297208013A031900296C
:10025800033A03190F29013A03191329073A031915
:100268001C29362983310623803108008231202257
:10027800813145308231C02281317F308231BA22CA
:100288008131D1302000AC000030AD008231CC2269
:10029800813100302000AC000030AD008231D22224
:1002A8008131E4302000AC000230AD008231AE2252
:1002B800813192302000AC000230AD008231C6227C
:1002C8008131A7302000AC000230AD008231D82245
:1002D800813100302000AC000030AD008231B42202
:1002E80081318331032381310800700803197D2986
:1002F8007E298D298231FB228131F6007608F100B2
:100308007B087102031C89298A298B29F101F001D4
:10031800A3298231FB228131F6007608F8007108A2
:10032800703EF600F7012330F73D7608860077081F
:100338008700780881000130F6007608F107080088
:1003480022008C018E01333021008C003F308E005A
:10035800333023008E0037308C0024008C018E014E
:1003680025008C018E01373026008C003F308E002E
:100378003F3027008C003F308E0012303C00A00038
:1003880019303D00A3001830A20013303C00A10032
:1003980008008231312281318B170B1781313A21C4
:1003A80081310C302000AC000230AD008231D822FF
:1003B8008131F2302000AC000130AD008231AE2234
:1003C800813179302000AC000130AD008231C62285
:1003D800813122000C15ED29803127287B08710214
:1003E800031CF729F829F929F1017108703E8600E4
:1003F80087012330873D0108F8007808F9000130AB
:10040800F8007808F10779088231DE228131080086
:100418008231FB2282318936F6007608F300823178
:10042800FF228231003A031D1A2A1B2A1F2A013093
:10043800F6007608F00008002400951A242A252AD8
:10044800302AC030940006302000AC002C0824006C
:100458009504013096009516080082318A2282316F
:100468008231412282318131A4218231823181223B
:1004780082318231F32282310800C0302400940096
:1004880006302000AC002C082400950401309600AA
:10049800951208002000260827040319542A552A13
:1004A8005A2A27088A0026080A00823108002000F4
:1004B800280829040319612A622A672A29088A0058
:1004C80028080A008231080020002408250403199E
:1004D8006E2A6F2A742A25088A0024080A008231A5
:1004E8000800FE0012001E000130FE020030FF3B33
:1004F8007F087E04031D762A00346230320099009A
:100508009B019D0103309F009E010800320091016C
:1005180092019301940195019601080083310C23FF
:100528008231F6007608F400080003102400141C39
:1005380003140030093D080003102400941E03141E
:100548000030093D080083310C238231F60076081B
:10055800F300080020002D08A7002C08A6000800BA
:1005680020002D08A1002C08A00008002000AC00E5
:100578002C352400930008002000AC002C35240002
:100588009200080020002D08A9002C08A8000800E7
:1005980020002D08AB002C08AA00080020002D0818
:1005A800A3002C08A200080020002D08A5002C0894
:1005B800A4000800F70077088231E9228231080098
:1005C80075088231E92282310800F6007608240095
:1005D800910008002400140C890C01390800163019
:1005E800210097000800240014080139080083310D
:1005F8000C23823108008231EE228231080021006A
:100608009115080024001516080020009111080013
:080618002400110808008034E1
:020000040001F9
:08000E00EC3FF33FFF1FFF3F31
:00000001FF
