:020000040000FA
:0400000080312728FC
:100008007E1480310B1F09280A2825282100111D7C
:100018000E280F281A282000111D132814281A2822
:100028002B088A002A080A00803125282100911D02
:100038001E281F2825282000911D2328242825282C
:1000480014287E100900803129285130840080301E
:10005800850070308600233087000030FF00803034
:100068008231C222803183315C238031FD00F70167
:10007800F801F901FA01FB01FC01A001A101A201AB
:10008800A301A401A501A601A701A801A901AA012C
:10009800AB017E1020008231362A0034013402344C
:1000A80003340434053406340734083409340A3474
:1000B8000B340C340D340E340F3410341134123424
:1000C80013341434153416341734183419341A34D4
:1000D8001B341C341D341E341F3420342134223484
:1000E80023342434253426342734283429342A3434
:1000F8002B342C342D342E342F34303431343234E4
:1001080033343434353436343734383439343A3493
:100118003B343C343D343E343F3440344134423443
:1001280043344434453446344734483449344A34F3
:100138004B344C344D344E344F34503451345234A3
:1001480053345434553456345734583459345A3453
:100158005B345C345D345E345F3460346134623403
:1001680063346434653466346734683469346A34B3
:100178006B346C346D346E346F3470347134723463
:1001880073347434753476347734783479347A3413
:100198007B347C347D347E347F3483315623803104
:1001A8008231ED228031003A0319DB28DC28EE2861
:1001B80083313B238031003A0319E328E428E928F6
:1001C8000130F6007608F90028290230F600760892
:1001D800F900282983313B238031003A0319F52897
:1001E800F628FB280430F6007608F90028290330A1
:1001F800F6007608F90028298231B522803182314B
:10020800E6228031003A03190A290B29362982315E
:100218009B22803136298231B522803136298231BC
:10022800E6228031003A03191A291B2936290B299D
:10023800833144238031003A03192329242936299C
:100248008231A822803136297908013A0319002918
:10025800033A03190F29013A03191329073A031915
:100268001C29362983315323803108007708031964
:100278003E293F294E29833148238131F2007208F3
:10028800F8007D087802031C4A294B294C29F801FB
:10029800F7017929833148238131F2007208F5008A
:1002A8007808F2007208F000780882310D22813156
:1002B8007808103EF2007208F4007508F20072081F
:1002C800F000740882310D2281317808703EF20006
:1002D800F3012330F33D7208860073088700750820
:1002E80081000130F2007208F807080082316D229F
:1002F8008131673083310D2381317F30833107238A
:100308008131D1302000AC000030AD008331192399
:10031800813100302000AC000030AD0083311F2354
:10032800813131302000AC000330AD008231FB2236
:100338008131DF302000AC000230AD00833113235F
:100348008131F4302000AC000230AD008331252328
:10035800813100302000AC000030AD008331012332
:100368008131833150238131080022008C018E01B4
:10037800333021008C003F308E00333023008E0054
:1003880033308C00043024008C008E0125008C0151
:100398008E01373026008C003F308E003F3027001A
:1003A8008C003F308E0012303C00A00019303D0018
:1003B800A3001830A20013303C00A10008007D08FB
:1003C8007802031CE829E929EA29F8017808F200EB
:1003D8007208F000203082310D2281317808703E99
:1003E800860087012330873D0108F2007208F30078
:1003F8000130F2007208F8077308F2007208F00082
:10040800213082310D228131730883312B238131D0
:100418000800F10031009518122A132A0E2A151720
:1004280071089100703092009401700893002000C8
:1004380003108B1F202A212A222A03148B13310030
:10044800151555309600AA309600951495182D2A42
:100458002E2A2A2A15112000031C332A342A352A69
:100468008B17080082317E2282318B170B1781315E
:100478007A21823159302000AC000230AD0083313E
:1004880025238231E3302000AC000130AD008231F9
:10049800FB2282313A302000AC000130AD008331BC
:1004A80013238231562A8031272883314823823109
:1004B8008936F0007008FA0083314C238231003A03
:1004C800031D672A682A6C2A0130F0007008F700BB
:1004D80008002400951A712A722A7D2AC0309400D7
:1004E80006302000AC002C0824009504013096004A
:1004F800951608008231D722823182318E228231CC
:100508008131B92182318231CE2282318331402337
:1005180082310800C0302400940006302000AC006E
:100528002C0824009504013096009512080020003C
:10053800260827040319A12AA22AA72A27088A001D
:1005480026080A0082310800200028082904031917
:10055800AE2AAF2AB42A29088A0028080A0082315C
:1005680008002000240825040319BB2ABC2AC12A34
:1005780025088A0024080A0082310800FE001200BB
:100588001E000130FE020030FF3B7F087E04031D81
:10059800C32A00346230320099009B019D01033068
:1005A8009F009E010800320091019201930194017D
:1005B800950196010800833159238231F0007008B3
:1005C800FB00080003102400141C03140030093D2C
:1005D800080003102400941E03140030093D08008D
:1005E800833159238231F0007008FA000800200096
:1005F8002D08A7002C08A600080020002D08A1003F
:100608002C08A00008002000AC002C352400930022
:1006180008002000AC002C352400920008002000BF
:100628002D08A9002C08A800080020002D08AB0000
:100638002C08AA00080020002D08A3002C08A200FE
:10064800080020002D08A5002C08A4000800F100CF
:10065800710883313623833108007C0883313623BF
:1006680083310800F000700824009100080024007D
:10067800140C890C01390800163021009700080075
:1006880024001408013908008331592383310800F4
:1006980083313B2383310800210091150800240091
:1006A8001516080020009111080024001108080000
:0206B80080348C
:020000040001F9
:08000E00EC3FF33FFF1FFF3F31
:00000001FF
