:020000040000FA
:0400000080312728FC
:100008007E1480310B1F09280A2825282100111D7C
:100018000E280F281A282000111D132814281A2822
:1000280075088A0074080A00803125282100911D6E
:100038001E281F2825282000911D2328242825282C
:1000480014287E10090080312928F001F101F201FD
:10005800F301F401F501F601F701F801F9012000B7
:10006800A001A101A201A301A401A5017E10200005
:10007800813130298131E921803181318E218031EE
:10008800003A0319482849285B288131D621803154
:10009800003A03195028512856280130FB007B08E4
:1000A800F60095280230FB007B08F6009528813180
:1000B800D6218031003A0319622863286828033062
:1000C800FB007B08F60095280430FB007B08F6004F
:1000D800952881314A218031813187218031003A48
:1000E800031977287828A328813157218031A3283C
:1000F80081314A218031A328813187218031003A1A
:10010800031987288828A32878288131DF2180319E
:10011800003A031990289128A3288131632180315E
:10012800A3287608013A03196D28033A03197C2895
:10013800013A03198028073A03198928A32881312D
:10014800E6218031080081310F218031453081312D
:10015800AE2180317F308131A82180313E302000AE
:10016800A6000030A7008131BA218031003020007C
:10017800A6000030A7008131C0218031CC3020009A
:10018800A6000130A70081319C21803180302000F9
:10019800A6000130A7008131B421803195302000BC
:1001A800A6000130A7008131C6218031003020002F
:1001B800A6000030A7008131A22180318131E321DE
:1001C8008031080022008C018E01333021008C0020
:1001D8003F308E00333023008E0037308C002400EF
:1001E8008C018E0125008C018E01373026008C0091
:1001F8003F308E003F3027008C003F308E00123099
:100208003C00A00019303D00A3001830A2001330B4
:100218003C00A10008002400951A132914291F295D
:10022800C030940006302000A6002608240095045B
:10023800013096009516080081317821813181318D
:100248003D2181318031E620813181316F21813139
:100258008131DB21813108008131202181318B17E7
:100268000B178031A720813122000C1538298031E5
:100278002728C0302400940006302000A600260855
:1002880024009504013096009512080020002408E7
:100298002504031950295129562925088A002408BC
:1002A8000A00813108007008710403195C295D296E
:1002B800622971088A0070080A00813108007208F2
:1002C80073040319682969296E2973088A0072085A
:1002D8000A00813108006230320099009B019D01BB
:1002E80003309F009E0108003200910192019301A2
:1002F80094019501960108008131EC218131FA00C1
:100308007A08F800080003102400141C03140030B5
:10031800093D080003102400941E03140030093D11
:1003280008008131EC218131FA007A08F7000800D1
:1003380020002708F1002608F00008002000270800
:10034800A1002608A00008002000A60026352400E9
:10035800930008002000A60026352400920008001B
:1003680020002708F3002608F200080020002708CC
:10037800F5002608F400080020002708A300260836
:10038800A200080020002708A5002608A4000800ED
:1003980079088131D12181310800FA007A082400D6
:1003A800910008002400140C890C0139080016304B
:1003B80021009700080024001408013908002100D2
:1003C8009115080024001516080020009111080056
:0603D800240011080800DA
:020000040001F9
:08000E00EC3FF33FFF1FFF3F31
:00000001FF
